:020000040800F2
:1000000028070020690100080D2000084D1F000886
:1000100000000000000000000000000000000000E0
:100020000000000000000000000000001320000895
:1000300000000000000000001120000865200008FA
:100040007B0100087B0100087B0100087B010008A0
:100050007B0100087B0100087B0100087B01000890
:100060007B0100087B0100087B0100087B01000880
:100070007B0100087B0100087B0100087B01000870
:100080007B0100087B010008000000007B010008E4
:100090007B0100087B0100087B0100087B01000850
:1000A0007B0100087B0100087B010008C12C0008CF
:1000B0007B010008000000007B01000800F002F84E
:1000C00000F042F80CA030C8083824182D18671E1C
:1000D000A246AB4654465D46AC4201D100F034F82E
:1000E0007E460F3EB6460FCC0126334200D0FB1AA7
:1000F0003343A246AB461847C02E0000E02E000056
:10010000103A02D378C878C1FAD8520701D330C860
:1001100030C101D504680C60704700000023002442
:1001200000250026103A01D378C1FBD8520700D32E
:1001300030C100D50B6070471FB50098019900F0E1
:1001400062FA1FBD10B510BD00F0B7FA1146FFF7F7
:10015000F3FF02F083FE00F0CFFA03B4FFF7F2FFE3
:1001600003BC00F0FFFA000007488047074800473B
:10017000FEE7FEE7FEE7FEE7FEE7FEE70448054987
:10018000054A064B70470000FB200008BD00000830
:100190002801002028070020280300202803002031
:1001A00070B5064600F012FA056830460B30C408F8
:1001B000E400B44201D8002070BD68682A460028D7
:1001C00018D00168A14211D30B46214608318B4259
:1001D00008D3436801194B6003681B1B0B60516017
:1001E000046001E041685160001D70BD0246406836
:1001F0000028E6D12146284600F0F0F90028DCD19D
:1002000070BD70B50446051F00F0E0F90068002CD1
:100210001AD0446801E020466468002C01D0AC424A
:10022000F9D301680A18AA4204D12A680546891838
:10023000016000E0456028684119A14205D161686C
:10024000696021684018286070BD6C6070BD4343D0
:10025000514330B55C18010C130C0D4692B25D434E
:1002600080B251432C19054655430A0C09044D1917
:1002700062415843010C00044019514130BDFEB5A4
:10028000044610460D46184373D0A6468C460020FF
:10029000A41A01469D4167D36646002701243D46C6
:1002A000B61A9D4102D313463A4621246546764646
:1002B0002F04360C3E432D0CB61A9D4104D3150C69
:1002C0001B042B4312041034654676462F06360A6B
:1002D0003E432D0AB61A9D4104D3150E1B022B4333
:1002E00012020834654676462F0736093E432D092B
:1002F000B61A9D4104D3150F1B012B431201241D77
:1003000065467646AF07B6083E43AD08B61A9D412E
:1003100004D3950F9B002B439200A41C65467646A0
:10032000EF0776083E436D08B61A9D411AD392181E
:100330005B41641C16E00018764665464941B71AD1
:100340009D410191009009D36046B11A98418E46B3
:100350008446009801990025401C6941DD07520838
:100360002A435B08641EE6D57246634603B0F0BDBF
:10037000FFE72046284307D00020C0430146C0467F
:10038000C04622462B46F1E700200146F7E701E090
:1003900004C0091F0429FBD28B0701D50280801CF1
:1003A000C90700D00270704700290BD0C30702D0E4
:1003B0000270401C491E022904D3830702D5028023
:1003C000801C891EE3E70022EEE70022DFE7000041
:1003D000024670B50A4392072AD11E4DEE0104C8A9
:1003E00008C9541B9443344017D0D0B2D9B2401A34
:1003F0002106014310D190B299B2401A2104014361
:100400000AD110021902000A090A401A2102014306
:1004100002D1100E190E401A70BD9A42DFD010BAE8
:1004200019BA884201D9012070BD0020C04370BDB7
:1004300002780B78401C491C002A09D09A4207D147
:1004400002780B78401C491C002A01D09A42EFD058
:10045000D01A70BD01010101002203098B422CD387
:10046000030A8B4211D300239C464EE003460B4304
:100470003CD4002243088B4231D303098B421CD366
:10048000030A8B4201D394463FE0C3098B4201D358
:10049000CB01C01A524183098B4201D38B01C01A90
:1004A000524143098B4201D34B01C01A5241030907
:1004B0008B4201D30B01C01A5241C3088B4201D3B6
:1004C000CB00C01A524183088B4201D38B00C01A63
:1004D000524143088B4201D34B00C01A5241411A8A
:1004E00000D201465241104670475DE0CA0F00D06D
:1004F0004942031000D3404253409C460022030966
:100500008B422DD3030A8B4212D38901FC2212BAEB
:10051000030A8B420CD3890192118B4208D38901C3
:1005200092118B4204D389013AD0921100E08909DB
:10053000C3098B4201D3CB01C01A524183098B42BC
:1005400001D38B01C01A524143098B4201D34B01A5
:10055000C01A524103098B4201D30B01C01A524108
:10056000C3088B4201D3CB00C01A524183088B428F
:1005700001D38B00C01A5241D9D243088B4201D318
:100580004B00C01A5241411A00D201465241104656
:1005900063465B1001D34042002B00D549427047AF
:1005A00063465B1000D3404201B50549002802DCD8
:1005B000491C084000E00846C046C04602BD00BFD6
:1005C000FFFFFF7F7047704770470000004870478B
:1005D00018000020704770477047704738B50446D0
:1005E0000A4600206946C046C046002805D002469B
:1005F0002046009900F040F8012038BD10B50120D8
:1006000000F054F810BDF8B5C046C04605460020BD
:100610000C461020C0460646A819A0420DD9324605
:1006200069460020C046C046070001D100F03EF8F0
:100630000098A04200D00546C419FFF7C7FFF61D79
:1006400007460560F008C0004619284600F008F883
:10065000B44204D031463868A21B00F00DF8F8BD52
:1006600000210160416080607047102070470000E9
:10067000004870471000002010B50346406801E0B4
:1006800003464068002801D08842F9D31868C3188F
:100690008B4206D0CB1CD808C000001D411A521A4C
:1006A0000146081D0A60FFF7ACFD10BD10B500F053
:1006B00031F800F029F810BD70477546FFF7D8FFF4
:1006C000AE46050069465346C008C000854618B0CE
:1006D00020B5FFF753FD60BCB64600260027C0C515
:1006E000C0C5C0C5C0C5C0C5C0C5C0C5C0C5403DEA
:1006F000490849008D46704710B50446C046C046BB
:100700002046FFF72AFD10BD10B5002801D000F0EB
:1007100029F810BD10B5012805D0002103A000F074
:1007200027F8012010BD09A1F8E7000053494752FE
:10073000544D454D3A204F7574206F6620686561B1
:1007400070206D656D6F7279000000003A20486579
:100750006170206D656D6F727920636F7272757054
:100760007465640001491820ABBEFEE72600020054
:1007700070B505460C460A2000E06D1C00F012F82A
:10078000002D06D028780028F7D102E0641C00F084
:1007900009F8002C02D020780028F7D10A2000F0B8
:1007A00001F870BD08B5694608700320ABBE08BDEE
:1007B00081B0EFF3108072B60090FFE7FEE782B0E1
:1007C000009000982121405C02280DD0FFE700999D
:1007D00004208863FFE70099202200208854FFE767
:1007E00001A9012008701FE00098016808680E2226
:1007F00090430860009802681168012081431160ED
:1008000000990A6C9040C96B4860FFE7009921226B
:1008100001208854FFE70099202200208854FFE738
:1008200001A900200870FFE701A8007802B0704716
:1008300080B582B00190694600200870019821219E
:10084000405C022807D0FFE70199042088636946CD
:100850000120087024E00198016808680E22904386
:100860000860019802681168012081431160019AB3
:10087000136C01469940D26B516001992122885432
:10088000FFE70199202200208854FFE70198406B80
:10089000002804D0FFE70198416B8847FFE7FFE796
:1008A0006846007802B080BD8BB00A9009910020A4
:1008B0000890FFE7099800680899C840002800D10F
:1008C00052E109980068089A012191400840079078
:1008D0000798002800D143E10998406803210840A7
:1008E000012807D0FFE70998406803210840022843
:1008F0002CD1FFE70A9880680690089840000321F1
:1009000081400698884306900998C168089840007D
:10091000814006980843069006980A9988600A98CC
:100920004068069008980121814006988843069007
:1009300009984068102108400109089881400698EC
:100940000843069006980A994860FFE709984068AE
:1009500003210840032816D0FFE70A98C0680690D4
:100960000898400003218140069888430690099822
:1009700081680898400081400698084306900698D0
:100980000A99C860FFE709984068032108400228D7
:1009900020D1FFE70A980899C90889004018006A21
:1009A000069008984007C00E0F21814006988843A2
:1009B00006900998016908984007C00E8140069882
:1009C0000843069006980A99089AD2089200891856
:1009D0000862FFE70A980068069008984100032023
:1009E00002468A4006999143069109994968014057
:1009F00008984000814006980843069006980A9996
:100A00000860099880798007002800D1A7E0FFE7F7
:100A1000A148026801210A4302600068084005906D
:100A20000598FFE7089803218843504940580690ED
:100A300008988007000F0F21814006988843069090
:100A40000A980921C906884203D1FFE700200490D3
:100A500022E00A984649884203D1FFE7012003902B
:100A600017E00A984349884203D1FFE70220029029
:100A70000CE00A99404A032005230093914201901B
:100A800001D00098019001980290FFE7029803902E
:100A9000FFE703980490FFE7049908988007000F88
:100AA00081400698084306900698089903229143CE
:100AB0002E4A885031480068069007990698884366
:100AC000069009988079C006002805D5FFE70799A8
:100AD000069808430690FFE70698284908602848CA
:100AE00000680690079906988843069009988079CF
:100AF0008006002805D5FFE7079906980843069069
:100B0000FFE706981E4908601E480068069007998E
:100B1000069888430690099880798007002805D5B3
:100B2000FFE70799069808430690FFE706981549DE
:100B30000860154800680690079906988843069053
:100B400009988079C007002805D0FFE70799069823
:100B500008430690FFE706980B490860FFE7FFE7A8
:100B60000898401C0890A5E60BB0704708000140AB
:100B70000004004800080048000C00480804014038
:100B80000C040140040401400004014083B00290C1
:100B900001A80180684602700078002805D0FFE7B0
:100BA00001A800880299886104E001A800880299E0
:100BB0008862FFE703B07047054800687047C04689
:100BC0002648027802490868801808607047C046C5
:100BD0002401002080B506490868102210430860EF
:100BE000032000F007F800F03DF8002080BDC0466B
:100BF0000020024080B584B0029017480068019040
:100C0000164801787D20C000FFF726FC01460198B8
:100C1000FFF722FC00F0E0FD002804D0FFE703A965
:100C20000120087014E00298032809D8FFE7029910
:100C30000022D04300F03DF802980949086003E023
:100C400003A90120087003E003A900200870FFE752
:100C500003A8007804B080BD00000020040000203C
:100C60000800002082B0FFE70B48026801210A4318
:100C700002600068084001900198FFE7FFE77F48A5
:100C80000268012109070A430260006808400090D9
:100C90000098FFE702B070471810024080B582B09C
:100CA000014601A801700021405602F00FF802B081
:100CB00080BD80B584B0034603A803700291019201
:100CC00000214056029902F017F804B080BD0000E0
:100CD00080B586B00490002003900290049880783C
:100CE000C007002800D193E001A9002008706348E4
:100CF0000068C000002810D4FFE7FFE75F480268E3
:100D0000012109070A43026000680840009000982A
:100D1000FFE701A901200870FFE759480068C005F6
:100D200000281DD4FFE7564908680122120210432B
:100D30000860FFF741FF0390FFE751480068C005D6
:100D400000280CD4FFE7FFF737FF0399401A652806
:100D500004D3FFE705A9032008708AE0EDE7FFE769
:100D600048480068032109020840029002980028C0
:100D700038D0FFE702980499496803221202114013
:100D800088422FD0FFE73F490868032212029043B0
:100D9000029008680122120410430860086890431A
:100DA00008600298086002A80078C007002818D0E0
:100DB000FFE7FFF701FF0390FFE732480068800775
:100DC00000280DD4FFE7FFF7F7FE0399401A9E496C
:100DD000884204D3FFE705A90320087049E0ECE747
:100DE000FFE7FFE727490868032212029043049AAD
:100DF00052681043086001A80078012807D1FFE776
:100E00001E4908680122120790430860FFE7FFE7C8
:100E100004980078C007002809D0FFE71A4908683D
:100E200003229043049A926810430860FFE70498F5
:100E300000788006002809D5FFE7134908681022CA
:100E40009043049AD26810430860FFE70498407802
:100E50004007002809D5FFE70B4908684022904366
:100E6000049A126910430860FFE705A90020087082
:100E7000FFE705A8007806B080BDC0461C10024000
:100E800000700040201002403010024080B584B055
:100E9000029001910298002804D1FFE703A90120E4
:100EA0000870C7E00198654909680122114088422D
:100EB00012D9FFE76148026801218A43019B1A4366
:100EC0000260006808400199884204D0FFE703A946
:100ED00001200870AEE0FFE7029800788007002844
:100EE00016D5FFE7029800784007002807D5FFE7EE
:100EF000874908680722120210430860FFE7844907
:100F00000868F0229043029A926810430860FFE755
:100F100002980078C007002850D0FFE70298406888
:100F200001280BD1FFE7464800688003002804D45D
:100F3000FFE703A9012008707CE01BE002984068ED
:100F400002280BD1FFE73E4800688001002804D446
:100F5000FFE703A9012008706CE00AE03848006848
:100F60008007002804D4FFE703A90120087061E08E
:100F7000FFE7FFE76649086803229043029A526838
:100F800010430860FFF718FE0090FFE76048006814
:100F90000C21084002994968890088420DD0FFE77A
:100FA000FFF70AFE0099401A2749884204D3FFE759
:100FB00003A9032008703DE0E8E7FFE701981F4917
:100FC000096801221140884212D2FFE71B480268DB
:100FD00001218A43019B1A4302600068084001997D
:100FE000884204D0FFE703A90120087022E0FFE750
:100FF00002980078400700280AD5FFE744490868AE
:10100000072212029043029AD26810430860FFE759
:1010100000F032F83E490968C9B20A090949895CF9
:10102000C8400C4908600320FFF7E4FD03A9002035
:101030000870FFE703A8007804B080BD00200240DC
:1010400000100240702F000889130000014800685A
:101050007047C0460000002080B5FFF7F7FF2C491D
:1010600009680722120211400A0A0249895CC84035
:1010700080BDC046802F000880B586B00020059056
:101080000490039002900190214800680590059813
:101090000C2108400090002832D0FFE70098042877
:1010A00004D0FFE70098082803D02AE01D480190EB
:1010B0002AE005990F20820411408A0C1549895CA9
:1010C00002911549096801401448405C049005A844
:1010D0008078C00700280BD0FFE7049A114800234E
:1010E0001946FFF7CCF8029AFFF7B1F8039004E035
:1010F00002990B4848430390FFE70398019003E0EF
:10110000FFE708480190FFE7019806B080BDC046A0
:1011100004100240882F00082C100240982F00086D
:1011200000093D0000127A0080B588B0069006984C
:10113000002804D1FFE707A90120087036E30698CC
:101140000078C007002800D193E0FE4800680C2119
:10115000084004280DD0FFE7FA4800680C21084039
:10116000082816D1FFE7F7480068C003002810D50B
:10117000FFE7F74800688003002809D5FFE70698D5
:101180004068002804D1FFE707A9012008700DE39B
:101190006EE0FFE706984068012807D1FFE7EC49B9
:1011A000086801221204104308602CE00698406889
:1011B00000280BD1FFE7E649086801221304984391
:1011C000086008689204904308601BE00698406835
:1011D00005280BD1FFE7DE49086801229304184374
:1011E000086008681204104308600AE0D8490868DB
:1011F0000122130498430860086892049043086031
:10120000FFE7FFE7FFE7FFE706984068002817D0F1
:10121000FFE7FFF7D1FC0590FFE7CD4800688003AA
:1012200000280CD4FFE7FFF7C7FC0599401A652892
:1012300004D3FFE707A903200870B7E2EDE716E043
:10124000FFF7BAFC0590FFE7C1480068800300285B
:101250000CD5FFE7FFF7B0FC0599401A652804D3C9
:10126000FFE707A903200870A0E2EDE7FFE7FFE72B
:10127000FFE7069800788007002876D5FFE7B14899
:1012800000680007800F00280DD0FFE7AD48006818
:101290000C210840082820D1FFE7AA480068C003B5
:1012A00000281AD4FFE7AA4800688007002809D55B
:1012B000FFE70698C068012804D0FFE707A90120CE
:1012C000087073E2A2490868F8229043069A1269EE
:1012D000D20010430860FFE746E00698C068002887
:1012E00025D0FFE79A490868012210430860FFF7FC
:1012F00063FC0590FFE796480068800700280CD43F
:10130000FFE7FFF759FC0599401A032804D3FFE7CC
:1013100007A90320087049E2EDE78D490868F82223
:101320009043069A1269D200104308601BE0884976
:101330000868012290430860FFF73EFC0590FFE734
:1013400083480068800700280CD5FFE7FFF734FCCE
:101350000599401A032804D3FFE707A90320087062
:1013600024E2EDE7FFE7FFE7FFE7069800780007D4
:1013700000283ED5FFE70698C06900281CD0FFE78B
:1013800074490868012210430860FFF715FC0590B6
:10139000FFE770480068800700280CD4FFE7FFF7DC
:1013A0000BFC0599401A032804D3FFE707A9032083
:1013B0000870FBE1EDE71BE06649086801229043F5
:1013C0000860FFF7F9FB0590FFE7FC48006880071D
:1013D00000280CD5FFE7FFF7EFFB0599401A03281B
:1013E00004D3FFE707A903200870DFE1EDE7FFE77B
:1013F000FFE7069800784007002800D4BBE002A968
:1014000000200870EE480068C000002810D4FFE7F4
:10141000FFE7EB480268012109070A430260006800
:10142000084001900198FFE702A901200870FFE73A
:10143000E4480068C00500281DD4FFE7E1490868BA
:101440000122120210430860FFF7B6FB0590FFE788
:10145000DC480068C00500280CD4FFE7FFF7ACFBB0
:101460000599401A652804D3FFE707A903200870EF
:101470009CE1EDE7FFE7FFE706988068012806D1C9
:10148000FFE7D149086801221043086029E0069867
:10149000806800280AD1FFE7CB4908680122904301
:1014A0000860086804229043086019E00698806884
:1014B00005280AD1FFE7C4490868042210430860E0
:1014C000086801221043086009E0BF49086801224A
:1014D000904308600868042290430860FFE7FFE734
:1014E000FFE7FFE706988068002818D0FFE7FFF7BE
:1014F00063FB0590FFE7B4480068800700280DD41F
:10150000FFE7FFF759FB0599401AB049884204D319
:10151000FFE707A90320087048E1ECE71EE0FFF7AA
:101520004BFB0590FFE7A84800688007002814D50A
:10153000FFE7FFF741FB0599401AA44988420BD306
:1015400002E0C0460410024007A9032008702DE104
:101550000010024024100240E5E7FFE702A80078EF
:10156000012807D1FFE79649086801221207904336
:101570000860FFE7FFE706980078C006002864D5FA
:10158000FFE706984069012829D1FFE790490868DC
:101590000422104308600868012210430860FFF726
:1015A0000BFB0590FFE78A480068800700280CD4F1
:1015B000FFE7FFF701FB0599401A032804D3FFE773
:1015C00007A903200870F1E0EDE781490868F822D7
:1015D0009043069A9269D2001043086034E006985E
:1015E0004069401D00280ED1FFE7794908680422B0
:1015F000904308600868F8229043069A9269D200E6
:10160000104308601FE07249086804221043086014
:101610000868012290430860FFF7CEFA0590FFE7C3
:101620006B480068800700280CD5FFE7FFF7C4FA75
:101630000599401A032804D3FFE707A9032008707F
:10164000B4E0EDE7FFE7FFE7FFE70698006A002850
:1016500000D1A7E0574800680C210840082871D045
:10166000FFE70698006A02284ED1FFE75249086852
:101670000122120690430860FFF79EFA0590FFE7EB
:101680004D480068800100280CD5FFE7FFF794FA69
:101690000599401A032804D3FFE707A9032008701F
:1016A00084E0EDE7FFE74B4908680F229043069A74
:1016B000D26A104308603F4908683D2212049043F3
:1016C000069B9A6A5B6A1A4310430860FFE73A492F
:1016D00008680122120610430860FFF76DFA0590B2
:1016E000FFE735480068800100280CD4FFE7FFF7CA
:1016F00063FA0599401A032804D3FFE707A90320DA
:10170000087053E0EDE71CE02B490868012212063F
:1017100090430860FFF750FA0590FFE726480068FD
:10172000800100280CD5FFE7FFF746FA0599401A1B
:10173000032804D3FFE707A90320087036E0EDE78C
:10174000FFE72EE00698006A012804D1FFE707A909
:10175000012008702AE01748006804901D480068BE
:10176000039004980121090408400699496A8842B7
:1017700011D1FFE703980F2108400699C96A8842F2
:1017800009D1FFE704980F21890408400699896A66
:10179000884204D0FFE707A90120087006E0FFE7B0
:1017A000FFE7FFE707A900200870FFE707A8007818
:1017B00008B080BD04100240001002402410024016
:1017C0001C100240007000402010024089130000ED
:1017D000341002402C10024080B582B00190019874
:1017E00000F018FC02B080BD82B001906846018014
:1017F00002B0704781B0009001B0704781B0009096
:1018000001B0704780B5A8B00F900F980068C0690C
:101810000E900F98006800680D900F98006880681F
:101820000C900E98EE4908400B900B98002817D1A9
:10183000FFE70EA800788006002810D5FFE70DA866
:101840000078800600280AD5FFE70F98806E0028F0
:1018500004D0FFE70F98816E8847FFE757E2FFE764
:101860000B98002800D1FBE00CA80078C0070028E6
:1018700005D1FFE70D98DB49084200D1F0E00EA842
:101880000078C007002810D0FFE70DA84078C007F7
:1018900000280AD0FFE70F980068012303620F9920
:1018A0008422885818438850FFE70EA800788007E4
:1018B000002811D5FFE70CA80078C00700280BD03E
:1018C000FFE70F980168022008620F998422885868
:1018D000042318438850FFE70EA80078400700282B
:1018E00011D5FFE70CA80078C00700280BD0FFE750
:1018F0000F980168042008620F99842288580223F7
:1019000018438850FFE70EA800780007002816D576
:10191000FFE70DA800788006002806D4FFE70CA892
:101920000078C00700280AD0FFE70F980068082356
:1019300003620F998422885818438850FFE70EA845
:1019400040780007002812D5FFE70DA8C0784007AF
:1019500000280CD5FFE70F9801680120C00208623B
:101960000F9984228858202318438850FFE70F9846
:1019700084214058002872D0FFE70EA80078800626
:10198000002810D5FFE70DA80078800600280AD5AA
:10199000FFE70F98806E002804D0FFE70F98816E54
:1019A0008847FFE7FFE70F98842140580A900F9877
:1019B0000068806840210840402806D0FFE70AA858
:1019C00000782821084241D0FFE70F9800F004FD7D
:1019D0000F98006880684006002832D5FFE7FFE7CF
:1019E000EFF31080179017980990012027902798FF
:1019F00080F310880F9801688868402290438860BF
:101A000009982690269880F31088FFE70F98406F7A
:101A1000002811D0FFE70F98416FBE4848630F9828
:101A2000406FFEF705FF002805D0FFE70F98406FD5
:101A3000416B8847FFE703E00F98FFF7DFFEFFE702
:101A400003E00F98FFF7DAFEFFE707E00F98FFF7D4
:101A5000D5FE0F99842200208850FFE7FFE756E16A
:101A60000F98006E012800D016E10EA80078C0067D
:101A7000002800D410E10DA80078C006002800D48A
:101A80000AE10F980168102008620F9800688068CA
:101A90004006002800D490E00F98406F006841682D
:101AA00008A801800088002800D185E008A80088E7
:101AB0000F995822895A884200DB7DE008980F99D7
:101AC0005A2288520F98406F8069202867D0FFE71C
:101AD000FFE7EFF3108016901698079001222592E9
:101AE000259880F310880F980168086812029043C7
:101AF000086007982490249880F31088FFE7FFE798
:101B0000EFF31080159015980690012223922398E8
:101B100080F310880F980168886890438860069861
:101B20002290229880F31088FFE7FFE7EFF3108000
:101B300014901498059001202190219880F310882A
:101B40000F9801688868402290438860059820902B
:101B5000209880F31088FFE70F998022202088507A
:101B60000F9900200866FFE7EFF310801390139899
:101B7000049001201F901F9880F310880F9801682F
:101B8000086810229043086004981E901E9880F305
:101B90001088FFE70F98406FFEF711FEFFE70F99DF
:101BA000022048660F985821415A5A22825A891AAF
:101BB00089B2FFF719FEFFE7A9E00F9A5820105AE3
:101BC0005A21525A801A03AA10800F98405A0028AE
:101BD00061D0FFE703A8008800285CD004E0C0467D
:101BE0000F08000020010004FFE7EFF310801290BF
:101BF0001298029001201D901D9880F310880F9874
:101C000001680868092252019043086002981C90FC
:101C10001C9880F31088FFE7FFE7EFF31080119026
:101C20001198019001221B921B9880F310880F9845
:101C3000016888689043886001981A901A9880F328
:101C40001088FFE70F998022202088500F990020EC
:101C500008660F998866FFE7EFF3108010901098E0
:101C6000009001201990199880F310880F9801684E
:101C7000086810229043086000981890189880F324
:101C80001088FFE70F99022048660F9803A909887A
:101C9000FFF7AAFDFFE73AE00EA88078C00600280B
:101CA0000FD5FFE70CA880784006002809D5FFE78C
:101CB0000F9801680120000508620F98FFF79AFD50
:101CC00025E00EA800780006002810D5FFE70DA833
:101CD0000078000600280AD5FFE70F98C06E00289C
:101CE00004D0FFE70F98C16E8847FFE70FE00EA80A
:101CF0000078400600280AD5FFE70DA800784006C6
:101D0000002804D5FFE70F9800F0BEFBFFE728B0DE
:101D100080BDC046B523000880B582B00090009811
:101D2000002804D1FFE701A90120087048E00098CD
:101D30008069002801D0FFE700E0FFE70098C06F4E
:101D4000002808D1FFE700997822002088540098E5
:101D500000F03AF8FFE700992420C867009801686E
:101D60000868012290430860009800F033FD0128C4
:101D700004D1FFE701A90120087021E00098406A22
:101D8000002804D0FFE7009800F0B8F9FFE70098BA
:101D9000016848680922D2029043486000980168AF
:101DA00088682A22904388600098016808680122A8
:101DB00010430860009800F04FFA01A90870FFE78F
:101DC00001A8007802B080BD80B58AB009900020DB
:101DD00008900790069005900490099800688A4939
:101DE000884232D1FFE7FFE71948026801218903E1
:101DF0000A4302600068084003900398FFE7FFE78A
:101E00006F480268012149040A43026000680840E3
:101E100002900298FFE703204102049102210591FC
:101E20000021009106910790012008900920C0062A
:101E300004A9FEF739FD009A1B2001901146FEF718
:101E400038FF0198FEF72AFFFFE70AB080BDC046C1
:101E50001810024080B588B00390029101A802805A
:101E600003988021405820284FD1FFE7029800288E
:101E700005D0FFE701A80088002804D1FFE704A9E6
:101E80000120087045E00398806801210903884219
:101E900010D1FFE70398006900280BD1FFE702A8E3
:101EA0000078C007002804D0FFE704A901200870CB
:101EB0002FE0FFE703990020086603980068406858
:101EC0000002002818D5FFE7FFE7EFF31080059028
:101ED0000598009001220792079880F310880398D4
:101EE00001680868920610430860009806900698FA
:101EF00080F31088FFE7FFE70398029901AA128890
:101F000000F0AAFD04A9087003E004A902200870EB
:101F1000FFE704A8007808B080BD000080B582B05B
:101F20000190064800900178054801F005F80099F5
:101F300034480122FFF78EFF02B080BD200100204F
:101F40007400002081B0009001B07047FFE7FEE709
:101F500080B58CB000200B900A90099008900790F3
:101F6000FFE7174802680121C9040A4302600068BC
:101F7000084006900698FFE7FFE711480268012134
:101F800049040A4302600068084005900598FFE78D
:101F900001200290010201910A480490002203925C
:101FA000FEF7F4FD019B029A0399049807930892A7
:101FB00009910A9107A9FEF777FC0CB080BDC046D5
:101FC000141002400008004880B582B00D4801900E
:101FD0000D4901604B21C901416000218160C16050
:101FE00001610C2242618161C16101624162FFF7BE
:101FF00093FE002803D0FFE7FEF7DAFBFFE702B00D
:1020000080BDC0469800002000380140FFE7FEE791
:102010007047704780B584B002900298401E000E51
:10202000002803D0FFE70120039011E00298401E32
:102030000949086000200190C043032100F05CFEC4
:10204000019806490860064A072111600390FFE7DE
:10205000039804B080BDC04614E000E018E000E042
:1020600010E000E080B5FEF7ABFD80BD80B598B014
:102070000CA801903021FEF7A8F9019800210291E7
:102080000B910A910991089107910691059104918C
:10209000039102220C9201230F93102310931492A8
:1020A00015910522D20416921791FFF73DF80028EA
:1020B00003D0FFE7FEF77CFBFFE707200890022034
:1020C000099000200A900B9008A80121FEF7DEFE7F
:1020D000002803D0FFE7FEF76BFBFFE7012003902A
:1020E0000020059003A8FEF7F3FD002803D0FFE7CA
:1020F000FEF75EFBFFE718B080BD704781B000902F
:1021000000982421405CC00700280CD0FFE700980D
:102110000068406801214904884300998A6A104395
:1021200009684860FFE700982421405C8007002888
:102130000CD5FFE700980068406801210904884336
:102140000099CA6A104309684860FFE70098242193
:10215000405C400700280CD5FFE700980068406805
:1021600001218904884300990A6B1043096848607B
:10217000FFE700982421405C000700280CD5FFE70A
:102180000098006840680121C903884300994A6BA0
:10219000104309684860FFE700982421405CC006AE
:1021A00000280CD5FFE7009800688068012109032A
:1021B000884300998A6B104309688860FFE700989C
:1021C0002421405C800600280CD5FFE700980068B9
:1021D00080680121490388430099CA6B104309684C
:1021E0008860FFE700982421405C400600281DD548
:1021F000FFE7009800684068012109058843009ABC
:10220000136C1843126850600098006C88420CD11F
:10221000FFE700980068406803214905884300995A
:102220004A6C104309684860FFE7FFE700982421E3
:10223000405C000600280CD5FFE700980068406865
:102240000121C904884300998A6C104309684860D9
:10225000FFE701B07047000080B590B00590059988
:10226000842200208850FEF7A7FC0490059800689F
:1022700000680007002831D5FFE70598049B4C490A
:10228000009101214905002200F09EFC002824D085
:10229000FFE7FFE7EFF31080099009980390012012
:1022A0000F900F9880F310880598016808688022C5
:1022B0009043086003980E900E9880F31088FFE713
:1022C00005992020C867FFE70599782200208854E7
:1022D000FFE706A90320087065E0FFE7059800689E
:1022E00000684007002849D5FFE70598049B30495E
:1022F000009101218905002200F066FC00283CD0F5
:10230000FFE7FFE7EFF310800890089802900120A4
:102310000D900D9880F310880598016808680922CF
:1023200052019043086002980C900C9880F310883A
:10233000FFE7FFE7EFF31080079007980190012275
:102340000B920B9880F31088059801688868904379
:10235000886001980A900A9880F31088FFE7059931
:10236000802220208850FFE7059978220020885499
:10237000FFE706A90320087015E0FFE70599202074
:10238000C86705998022885005990020086605993C
:102390004866FFE70599782200208854FFE706A9E0
:1023A00000200870FFE706A8007810B080BDC04686
:1023B000FFFFFF0180B582B001900198406A009054
:1023C00000995A220020885200995222885200987F
:1023D000FFF714FA02B080BD8DB00390FFE7EFF372
:1023E000108006900698029001200C900C9880F3C3
:1023F0001088039801680868092252019043086018
:1024000002980B900B9880F31088FFE7FFE7EFF33B
:10241000108005900598019001220A920A9880F395
:102420001088039801688868904388600198099033
:10243000099880F31088FFE70398006E012818D1EF
:10244000FFE7FFE7EFF3108004900498009001206D
:102450000890089880F31088039801680868102293
:102460009043086000980790079880F31088FFE772
:10247000FFE70399802220208850039900200866F6
:10248000039988660DB0704780B586B00290FFE76B
:10249000EFF31080039003980190012005900598B8
:1024A00080F3108802980168086840229043086011
:1024B00001980490049880F31088FFE70299202087
:1024C000C86702990020C8660298FFF73BFD06B076
:1024D00080BD80B594B0079007985C21405A05A94B
:1024E0000880079880214058222800D0A9E007984A
:1024F0000068808C04A908800798406D06900498B5
:1025000005990840069908800799486D801C486520
:10251000079A5A21505A401E50520798405A002894
:1025200000D08DE0FFE7EFF310800B900B98039045
:1025300001201390139880F31088079801680868A9
:10254000092252019043086003981290129880F378
:102550001088FFE7FFE7EFF310800A900A980290D7
:1025600001221192119880F31088079801688868F9
:102570009043886002981090109880F31088FFE7CD
:1025800007998022202088500799002088660799A3
:1025900048660798006840680002002818D5FFE7E1
:1025A000FFE7EFF3108009900998019001220F9244
:1025B0000F9880F310880798016808689206904386
:1025C000086001980E900E9880F31088FFE7FFE7EF
:1025D0000798006E01282ED1FFE7079900200866B2
:1025E000FFE7EFF3108008900898009001200D900D
:1025F0000D9880F3108807980168086810229043AE
:10260000086000980C900C9880F31088FFE70798FA
:102610000068C069102108400009012805D1FFE7C2
:102620000798016810200862FFE707985821415A6F
:10263000FFF7DAF803E00798FFF770FCFFE7FFE722
:1026400006E0079801688869082210438861FFE75F
:1026500014B080BD80B594B0079007985C21405AB3
:1026600006A90880079880214058222800D0A7E0BA
:1026700007980068808C05A908800598069908408D
:102680000799496D08700799486D401C4865079A7D
:102690005A21505A401E50520798405A002800D0E4
:1026A0008DE0FFE7EFF310800B900B980490012072
:1026B0001390139880F3108807980168086809221E
:1026C00052019043086004981290129880F3108889
:1026D000FFE7FFE7EFF310800A900A9803900122CA
:1026E0001192119880F310880798016888689043C8
:1026F000886003981090109880F31088FFE707997E
:102700008022202088500799002088660799486613
:102710000798006840680002002818D5FFE7FFE727
:10272000EFF3108009900998029001220F920F9800
:1027300080F3108807980168086892069043086043
:1027400002980E900E9880F31088FFE7FFE7079835
:10275000006E01282ED1FFE7079900200866FFE7E9
:10276000EFF3108008900898019001200D900D98CB
:1027700080F3108807980168086810229043086069
:1027800001980C900C9880F31088FFE70798006878
:10279000C069102108400009012805D1FFE707980A
:1027A000016810200862FFE707985821415AFFF797
:1027B0001BF803E00798FFF7B1FBFFE7FFE706E030
:1027C000079801688869082210438861FFE714B000
:1027D00080BD000080B58AB0099004A9002008706F
:1027E000099988680A6910434A691043C96908430E
:1027F00008900998006800689249084008990843C1
:10280000099909680860099800684068032109036C
:1028100088430999CA681043096848600998806923
:1028200008900998016A0898084308900998006878
:1028300080680B21090288430899084309990968AF
:102840008860FFE7099800687F49884229D1FFE73F
:102850007F48006803210840029003281CD8029892
:10286000810001A04058874679280008892800087F
:10287000912800088128000806A9002008700FE0B0
:1028800006A9022008700BE006A90420087007E0E2
:1028900006A90820087003E006A910200870FFE7C9
:1028A0000EE0099800686949884204D1FFE706A94B
:1028B0000020087003E006A910200870FFE7FFE77A
:1028C000FFE70998C0690121C90388425ED1FFE78B
:1028D00006A800780190082825D80198810001A059
:1028E00040588746092900082729000811290008AF
:1028F0002729000817290008272900082729000888
:10290000272900081F290008FEF7A6FB039010E006
:10291000504803900DE0FEF7AFFB039009E0012063
:10292000C003039005E00020039004A90120087073
:10293000FFE70398002828D0FFE703984000099993
:1029400049684A088018FDF787FD0590059810280A
:1029500016D3FFE705A84088002811D1FFE70599A5
:102960000F20814307A8018005990E2211404A08D3
:10297000079911430180008809990968C86003E03C
:1029800004A901200870FFE7FFE751E006A80078DE
:102990000090082825D80098810001A0405887465B
:1029A000C5290008E3290008CD290008E32900080B
:1029B000D3290008E3290008E3290008E3290008D7
:1029C000DB290008FEF748FB039010E02148039044
:1029D0000DE0FEF751FB039009E00120C0030390D6
:1029E00005E00020039004A901200870FFE7039888
:1029F00000281CD0FFE70398099949684A08801805
:102A0000FDF72AFD0590059810280BD3FFE705A8D0
:102A10004088002806D1FFE705A8008809990968C1
:102A2000C86003E004A901200870FFE7FFE7FFE7A3
:102A30000999002088660999C86604A800780AB038
:102A400080BDC046F369FFFF0038014000440040EC
:102A50003010024000127A008FB00590049103A854
:102A60000280049805994865039805995822885270
:102A7000039805995A228852059900208866FFE735
:102A80000598806801210903884210D1FFE7059865
:102A90000069002805D1FFE705995C224748885264
:102AA00004E005995C22FF208852FFE71AE00598B0
:102AB0008068002810D1FFE705980069002805D13B
:102AC000FFE705995C22FF20885204E005995C220B
:102AD0007F208852FFE704E005995C22002088529D
:102AE000FFE7FFE7FFE7059984220020885005995A
:102AF000802222208850FFE7EFF31080089008988A
:102B0000029001220E920E9880F3108805980168B9
:102B100088681043886002980D900D9880F31088A3
:102B2000FFE70598806801210903884209D1FFE782
:102B300005980069002804D1FFE7059921488866B7
:102B400003E005991E488866FFE70598006900289C
:102B500019D0FFE7FFE7EFF3108007900798019087
:102B600001200C900C9880F3108805980168086883
:102B7000092252011043086001980B900B9880F3D2
:102B80001088FFE717E0FFE7EFF310800690069844
:102B9000009001200A900A9880F310880598016837
:102BA000086820221043086000980990099880F373
:102BB0001088FFE7FFE700200FB07047FF0100001B
:102BC00055260008D324000810B586B0089C049050
:102BD000039102A802700193FFE704980068C0699E
:102BE00003990840401A4142484102A909788842A5
:102BF0005ED1FFE70898401C002858D0FFE7FDF79A
:102C0000DBFF0199401A0899884204D8FFE7089829
:102C1000002804D1FFE705A9032008704CE00498C0
:102C2000006800684007002840D5FFE70498006866
:102C3000C06908210840C008012816D1FFE70498A0
:102C400001680820009008620498FFF7C5FB00980F
:102C5000049984228850FFE7049978220020885440
:102C6000FFE705A90120087026E004980068C06904
:102C70000121C9020840C00A012816D1FFE70498C3
:102C800001680120C00208620498FFF7A5FB0499BF
:102C9000842220208850FFE704997822002088545D
:102CA000FFE705A90320087006E0FFE7FFE794E7C8
:102CB00005A900200870FFE705A8007806B010BD40
:102CC00080B57448FEF79EFD80BDC04681B00146C8
:102CD0006846017000214056002809D4FFE7684685
:102CE00001781F2001400120884002490860FFE769
:102CF00001B0704700E100E070B582B0024601A863
:102D00000270009100214056002816D4FFE70024ED
:102D100001A908570322D3431840174A805809577E
:102D20008C07E50EFF24AC40A043009CA401E4B254
:102D3000AC402043194088501AE001A908780F24BC
:102D4000204008380322D34318400A4A80580025FF
:102D500049578D07EE0EFF25B540A843009DAD01F4
:102D6000EDB2B54028432140083919408850FFE7AB
:102D700002B070BD1CED00E000E400E080B582B060
:102D8000434800F0BEF8002830D1FFE7404800F08B
:102D900085F801A908702B48007800280DD1FFE7BD
:102DA00001A800782A2807D1FFE7264901200870EA
:102DB000254900200870FFE717E022480078012825
:102DC00012D1FFE701A80078232804D1FFE71D49AD
:102DD0000220087007E001981B4B1A78511C1970EB
:102DE0001A498854FFE7FFE7FFE7FFE71548007837
:102DF000022824D1FFE715481549FDF7E9FA002814
:102E000006D1FFE7012211021348FDF7BFFE0EE0D5
:102E10000E481049FDF7DCFA002807D1FFE7012032
:102E200001020D480022FDF7B1FEFFE7FFE707486A
:102E30001421FDF7C8FA034900200870FFE702B02B
:102E400080BDC046210100207000002084000020C9
:102E5000B02F0008A82F00080008004880B582B0F5
:102E600000200190FDF7B6FEFFF700F9FFF770F8BC
:102E7000FFF7AAF80648402100F030F80548064957
:102E80000122FEF7E7FFFFE7FFF778FFFCE7C04608
:102E900074000020980000202001002080B584B03C
:102EA000039002A900200870039800F02AF8002877
:102EB00010D1FFE7039908688968405C02A908708F
:102EC000039901918868401C4968FDF7CFFA019881
:102ED0008160FFE702A8007804B080BD80B582B0B1
:102EE000019000910098FDF75BF901990860009846
:102EF000019948600199002088600199C86002B07A
:102F000080BD81B0009000998868C968401A41422C
:102F1000484101B0704780B582B00190019900919D
:102F2000C868401C4968FDF7A1FA00988068081A33
:102F30004142484102B080BD80B584B0039002A8F0
:102F400001700398FFF7E7FF00280FD1FFE7029811
:102F5000039A1168D268885403990191C868401C8B
:102F60004968FDF783FA0198C160FFE704B080BDAE
:102F70000000000000000000010203040607080929
:102F8000000000000102030402030405060708090B
:102F90000A0B0C0D0E0F10100102030405060708A2
:102FA000090A0B0C0D0E0F106C6564206F6666002D
:102FB0006C6564206F6E0000D82F000800000020B0
:102FC0001000000000010008E82F00081000002099
:102FD000180700001C01000800127A000100000020
:082FE0000400000000000000E5
:04000005080000BD32
:00000001FF
